S014000050524F4A4543545F563030312E73726563B3
S315080000000000032045060008970600089906000820
S315080000109B0600089D0600089F06000800000000D1
S31508000020000000000000000000000000A106000813
S31508000030A306000800000000A5060008A706000899
S315080000409506000895060008950600089506000816
S315080000509506000895060008950600089506000806
S3150800006095060008950600089506000895060008F6
S3150800007095060008950600089506000895060008E6
S3150800008095060008950600089506000895060008D6
S3150800009095060008950600089506000895060008C6
S315080000A095060008950600089506000895060008B6
S315080000B095060008950600089506000895060008A6
S315080000C09506000895060008950600089506000896
S315080000D09506000895060008950600089506000886
S315080000E09506000895060008950600089506000876
S315080000F09506000895060008950600089506000866
S315080001009506000895060008950600089506000855
S315080001109506000895060008950600089506000845
S315080001209506000895060008950600089506000835
S315080001309506000895060008950600089506000825
S315080001409506000895060008950600089506000815
S315080001509506000895060008950600089506000805
S3150800016095060008950600089506000895060008F5
S315080001709506000895060008950600080000000088
S3150800018095060008950600089506000895060008D5
S3150800019095060008950600089506000895060008C5
S311080001A09506000895060008950600085C
S315080001AC10F8012B11F8013B012A28BF9A42F7D007
S315080001BCD01A704700F1340191E838009C46A646DF
S315080001CC4CF8045D90E8FF0FE54600BD90EC210B5A
S315080001DC704700BF80EC210B704700BF90EC200BDA
S315080001EC704700BF80EC200B704700BFD0EC200B8B
S315080001FC704700BFC0EC200B704700BFF0EC020143
S3150800020CF0EC0211F0EC0221F0EC0231F0EC0241B8
S3150800021CF0EC0251F0EC0261F0EC0271F0EC0281A8
S3150800022CF0EC0291F0EC02A1F0EC02B1F0EC02C198
S3150800023CF0EC02D1F0EC02E1F0EC02F1704700BFF1
S3150800024CE0EC0201E0EC0211E0EC0221E0EC0231F8
S3150800025CE0EC0241E0EC0251E0EC0261E0EC0271E8
S3150800026CE0EC0281E0EC0291E0EC02A1E0EC02B1D8
S3150800027CE0EC02C1E0EC02D1E0EC02E1E0EC02F1C8
S3150800028C704700BFB0FC0181B0FC0191B0FC01A124
S3150800029CB0FC01B1704700BFA0FC0181A0FC019124
S315080002ACA0FC01A1A0FC01B1704700BFEC4600B54B
S315080002BC2DE900502DE9FF1F4FF000032DE90C0026
S315080002CC01A901F0B9F9DDF840E012B0704700BF9A
S315080002DCEC4600B52DE900502DE9FF1F4FF0000341
S315080002EC2DE90C0001A901F0E3F9DDF840E012B0A4
S315080002FC704700BFEC4600B52DE900502DE9FF1FED
S3150800030C4FF000032DE90C0001A901F0F3F9DDF813
S3150800031C40E012B0704700BFEC4600B52DE900501E
S3150800032C2DE9FF1F4FF000032DE90C0001AB01F07E
S3150800033CB7F9DDF840E012B0704700BFEC4600B5DF
S3150800034C2DE900502DE9FF1F4FF000032DE90C0095
S3150800035C01AA01F029FADDF840E012B0704700BF97
S3150800036C0348044B834202D0034B03B1184770472A
S3150800037C5C0000205C000020000000000548064BCD
S3150800038C1B1AD90F01EBA301491002D0034B03B179
S3150800039C184770475C0000205C0000200000000035
S315080003AC10B5064C237843B9FFF7DAFF044B13B1A3
S315080003BC0448AFF300800123237010BD5C000020B5
S315080003CC00000000D021000808B5054B1BB10549F3
S315080003DC0548AFF30080BDE80840FFF7CFBF00BF64
S315080003EC0000000060000020D021000841390729D0
S315080003FC3DD8DFE801F0040B121920272E351D4ACB
S3150800040C1D48136B43F0010313637047194A1B48C5
S3150800041C136B43F0020313637047164A1848136BA1
S3150800042C43F0040313637047124A1648136B43F0E0
S3150800043C0803136370470F4A1348136B43F01003F2
S3150800044C136370470B4A1148136B43F0200313636D
S3150800045C7047084A0E48136B43F040031363704702
S3150800046C044A0C48136B43F040031363704700208F
S3150800047C704700BF003802400000024000040240EA
S3150800048C00080240000C0240001002400014024012
S3150800049C00180240001C024070B50C460480114638
S315080004AC827005461E46FFF7A1FF610089B24B1CF8
S315080004BC9BB2012EA860E980AB801BD0022E0ED011
S315080004CC5EB9C468012202FA01F124EA0101C1608D
S315080004DCC1689A4021EA0202C260284670BDC46807
S315080004EC012202FA01F124EA0101C160C1689A40AD
S315080004FC0A43F1E7C26806FA01F11143C160C26802
S3150800050C9E4022EA0602E7E7012970B5846810D0F6
S3150800051C022928D0D1B105880121A94052BB6268AD
S3150800052C22EA01026260032B36D8DFE803F027368D
S3150800053C43508588266801FA05F535432560C68833
S3150800054C2568B14025EA01012160E4E7868825681B
S3150800055C012101FA06F625EA0605C68825602568EE
S3150800056CB1402943F0E785882668012101FA05F58B
S3150800057C3543F2E7626811436160D4E78188A26863
S3150800058C012303FA01F122EA0102A260C188A268DA
S3150800059C8B4022EA0303A36070BD8188A2680123FD
S315080005AC03FA01F122EA0102C188A260A2688B4013
S315080005BC1343F0E78388A168012202FA03F30B437D
S315080005CCA360C188A3688A4023EA0203E3E782880A
S315080005DCA168012303FA02F20A43E5E78368028855
S315080005EC1969012393400B40D34014BF0120002006
S315080005FC7047826800889169012383400B43936195
S3150800060C704710B5816802888C69103201239340B3
S3150800061C23438B6110BD10B50446FFF7DFFF20B1ED
S3150800062C2046BDE81040FFF7ECBF2046BDE8104059
S3150800063CFFF7DFBF70470000DFF834D0002103E076
S3150800064C0C4B5B58435004310B480C4B42189A42DE
S3150800065CF6D30B4A02E0002342F8043B094B9A42B4
S3150800066CF9D300F01BF800F01BFE00F0B7F8704742
S3150800067C0000032008240008000000205C0000206D
S3150800068C5C000020C8010020FEE77047FEE7FEE785
S3150800069CFEE7FEE770477047704770470F49D1F879
S315080006AC883043F47003C1F888300D4B1A68002063
S315080006BC42F001021A6098601A6822F0847222F4D9
S315080006CC80321A60074A5A601A6822F480221A6025
S315080006DCD8604FF000638B60704700BF00ED00E0F8
S315080006EC0038024010300024334B1A6842F480322A
S315080006FC82B01A601A689203FCD530490A6822F04F
S3150800070C0F0242F005020A601A6C42F080521A6413
S3150800071C1B6C03F080530193019B294B1A6842F416
S3150800072C80321A605A68D003FCD51A6842F4003233
S3150800073C1A60234A53689903FCD51F4B21495A68FA
S3150800074C1140214A0A435A605A6822F440325A60C8
S3150800075C1A6842F080721A601A689201FCD59A6877
S3150800076C22F0F0029A609A6822F0030242F0020222
S3150800077C9A60114B9A6802F00C02082AFAD19A6808
S3150800078C22F4E05242F4A0529A609A6822F460422B
S3150800079C42F400429A604FF0E0230C4A5A610C4A24
S315080007ACF02182F8231000229A6107221A61094B5C
S315080007BC094A1A6002B0704700380240003C0240F1
S315080007CC007000400080BFFF085A40001FBF02009F
S315080007DC00ED00E0000000200095BA0A1FB5FFF7EF
S315080007EC83FF002344220C2101A8FFF755FE0023A2
S315080007FC1A46194601A8FFF787FE01A8FFF70BFF53
S3150800080C01A8FFF717FFECE701A8FFF713FF00F0A5
S3150800081C00F81EB400F09BF81EBCFFF759FD0378D0
S3150800082C472B17D143784E2B14D18378552B11D1DE
S3150800083CC378432B0ED10379432B0BD143792B2B3E
S3150800084C08D183792B2B05D1C07901288CBF0020C0
S3150800085C01207047002070472DE9F3411D460378A7
S3150800086C472B0E460246C17913D143784E2B10D12D
S3150800087C8378552B0DD1C378432B0AD10379462B94
S3150800088C07D143794F2B04D18379522B01D10029F7
S3150800089C31D01046FFF7C3FF80F00104E4B2002301
S315080008AC0020019053BB5CBB01290ABF52F8203CBF
S315080008BCA2F12003783B012908BF52F8202C1C68AA
S315080008CC18BF58320192236820469B689847C8B1CE
S315080008DC019B1B6801930227336801AAD3F8108081
S315080008EC214601233046C04770B1019B2B60384620
S315080008FC02B0BDE8F08101230C46D1E7034CE2E7D0
S3150800090C034CE0E70127E7E70746F0E7082200086B
S3150800091C3422000810B5044600F032F80246204688
S3150800092CA4F12001FFF77BFF60B154F8043C0133B6
S3150800093C012B44F8043C03D1936844F8083C9160B5
S3150800094C012010BD9368002BF9D000F099FA10B568
S3150800095C00F016F8826801460AB900F091FA02F11D
S3150800096C20042046FFF75BFF40B1D369013BD361F6
S3150800097C13B9906988609361204610BD8860FBE7BF
S3150800098C004870477800002030B500231A4610F846
S3150800099C015B05F07F04944023432C0602F1070201
S315080009ACF5D40B6030BD30B500231A4610F8014B50
S315080009BC04F07F0595402B43250602F10702F5D472
S315080009CC1F2A06D8640642BF4FF0FF3404FA02F217
S315080009DC13430B6030BD50282DE9F3410646884673
S315080009EC15461F4608D1D01C20F0030050F8044BBE
S315080009FC3C6002B0BDE8F08100F00F030C2B2ED83A
S31508000A0CDFE803F025071D25292D2D2D2D18212569
S31508000A1C290001A92846FFF7B7FF019C002CE7D04F
S31508000A2C06F07003102B08BFA8464444330648BF8B
S31508000A3C2468DDE701A92846FFF7B5FFEDE7284648
S31508000A4C30F8024BEAE7284630F9024BE6E7284627
S31508000A5C50F8044BE2E7284650F8084BDEE700F05E
S31508000A6CBFFB08B50346FF2B08460DD003F07003F1
S31508000A7C302B0FD004D8202B08D005D900F0B0FBAA
S31508000A8C402B0BD0502BF9D1002008BDBDE80840EF
S31508000A9C01F075BBBDE8084001F06EBBBDE8084027
S31508000AAC01F05ABB70B50C460146204615461E4643
S31508000ABCFFF7D7FF334601462A462046BDE8704065
S31508000ACCFFF789BF73B50C461546064608B101F003
S31508000ADC43FB2246286012F8011BFF291CD02B1D4C
S31508000AEC3046FFF7DFFF0246104610F8013BFF2B96
S31508000AFC14D010232B7501A9FFF746FF019B03445D
S31508000B0CEB6010F8013B6B7501A9FFF73DFF019BE4
S31508000B1C03442B6102B070BD6860E5E72B750023B2
S31508000B2CEEE71FB503AB009300230A46194600F0FF
S31508000B3CEDFD039805B05DF804FB00002DE9F04FB8
S31508000B4C93B00023079300F00303012B05460C46CC
S31508000B5C164610D0022B03D0002B3BD101073BD5F0
S31508000B6C3146204601F0E2FA18B1092013B0BDE867
S31508000B7CF08F0820FAE7020723D5022305F00805AB
S31508000B8C1D430CAB009300230C22194630460C94DB
S31508000B9C00F0E4FD062D21D1D4F83080D4E90A7989
S31508000BACB8F1000F0CBF4FF0010A4FF0030A15F00D
S31508000BBC080500F00981BAF1010F40F0018100F037
S31508000BCC5FF90F6A30460D21FFF7ABFF8742D4D188
S31508000BDC0623D3E700F004FB0123CFE7304601F0E8
S31508000BECC1FA81460028BBD00CAA01463046FFF74D
S31508000BFC69FF9DF844B0039031465846FFF731FF1C
S31508000C0C0F2102900E903046FFF78BFF039A20F0C7
S31508000C1C010808F1FF38109F974215D80027B846E7
S31508000C2C4FF0010AEB07C2D5BAF1020F98D00D2185
S31508000C3C3046079DFFF775FFC4E90A79C4E908052C
S31508000C4CC4F83080062091E79DF845A008AB5146BC
S31508000C5C0020FFF727FF09AB024651460020FFF795
S31508000C6C21FF0AAB024651460020FFF71BFF0BA9D2
S31508000C7CFFF78AFE0C9B08990B444345024651D84C
S31508000C8C09990B444345C6D9DDF82880B8F1000FFD
S31508000C9C01D00D9B98440B9B002B3BD0B8F1000F51
S31508000CAC3FF45EAF15F0080204923DD0472222703D
S31508000CBC4E2262705522A2704322E270462222719D
S31508000CCC4F2262715222A2710022E271013BF8187E
S31508000CDC0023039309A9FFF766FE0AA90590FFF7F7
S31508000CEC62FE099F002F68D042DDBBF1FF0F3BD097
S31508000CFC0BF00703042B3FF66DAF01A252F823F055
S31508000D0C470D0008E10B0008790D0008470D00088F
S31508000D1C710D0008B8F1000F3FF422AF00274FF011
S31508000D2C020A7FE73A4676E7E279012A0CBF54F8BD
S31508000D3C202C04F158020792C8E704220F990BAB32
S31508000D4C07FB121258460299FFF745FE0B9931B16B
S31508000D5C3CB307AB00222046FFF77EFD08B34FF0E5
S31508000D6C030A5FE70822E9E70022E7E70222E5E73C
S31508000D7C0F9B6FF04042D21B03EB820AC4B1049955
S31508000D8CB1B9079B0B93AAF1040A5AF8041F002958
S31508000D9CE5D00BAB002251442046FFF75DFD002839
S31508000DACF3D00A98002859D0059B0344184691E7B6
S31508000DBC53F82230002BF4D1D1E701230393F0E743
S31508000DCC002F1FDA00F06EF8BAF1010F02D1204697
S31508000DDC00F09BF9002F15DA0CAA49463046FFF7A6
S31508000DEC71FE9DF844003146FFF73BFE0F9BFA4314
S31508000DFC03EB820353F8252052BB0422C4E90A509C
S31508000E0CC4E90C2300230BAD1A4619460095304647
S31508000E1C0B9400F0A3FC00231946012200953046DA
S31508000E2C0B9700F09BFC0F213046FFF77AFE00F07B
S31508000E3C010040EA080000230B9000950F22194682
S31508000E4C304600F08BFCBAF1020F03D007208DE672
S31508000E5C0135CFE72046FFF75DFDF7E7039B002B2F
S31508000E6C3FF47EAE5AE700BF08B5804700F0B8F9E4
S31508000E7C024B1868BFF35B8F704700BF0800002051
S31508000E8C08B5FFF7F5FFFFF7EFFF08B58047FFF743
S31508000E9CF7FF0000024B1868BFF35B8F704700BF63
S31508000EAC0400002008B5FFF7F5FFFFF7EEFF00007A
S31508000EBC10B5034B0360044600F0B4F8204610BD89
S31508000ECC7822000810B50446FFF7F2FF20460C21DD
S31508000EDC00F0FCF8204610BD2DE9F041DDF818802D
S31508000EEC904506460F4615461C460BD0B068036857
S31508000EFCCDF818801E6A2A4623463946B446BDE8FC
S31508000F0CF0416047194600F057F80028EED0062045
S31508000F1CBDE8F0812DE9F14F0D461946DDE90A4B7E
S31508000F2CDDE90CA681461746984600F045F890B1BF
S31508000F3C002D3460377109DB2C44A24514BF0124FB
S31508000F4C0624B471002001B0BDE8F08F0235F9D142
S31508000F5C0123B371F6E7544506D15946484600F0C5
S31508000F6C2BF808B17771EDE7D9F808000368CDE9D5
S31508000F7C0CA6CDE90A4BDC693A4643462946A446F3
S31508000F8C01B0BDE8F04F60472DE9F04107460C4625
S31508000F9C15461E4600F079F848B9B86803689F6983
S31508000FAC2A4633462146BC46BDE8F0416047BDE8B3
S31508000FBCF081704700207047814208B50ED0406812
S31508000FCC03782A2B0CD049680B782A2B08BF0131D9
S31508000FDCFFF7E6F8B0FA80F0400908BD0120FCE7F7
S31508000FEC0020FAE77FB500241023CDE90234036804
S31508000FFC15469E6912686B46CDE90044B0479DF8C4
S3150800100C043003F00603062B03BF009B2B6001205C
S3150800101C204604B070BD009890420CBF06200120F3
S3150800102C7047000010B5034B03600446FFF7C1FF79
S3150800103C204610BDEC22000810B50446FFF7F2FF57
S3150800104C2046082100F042F8204610BD2DE9F04153
S3150800105C1F46DDE90834DDF818809845064615461E
S3150800106C07D10799FFF7A8FF18B165710020BDE8ED
S3150800107CF08139463046FFF79FFF0028F6D001234A
S3150800108CC4F800802571A371F0E738B515461C46DF
S3150800109CFFF792FF20B10823E3600623256023712E
S315080010AC38BD2DE9F04105460C4616461F46FFF796
S315080010BC83FF48B9032F07D82368324629462046AA
S315080010CC5B69BDE8F0411847BDE8F08100F086B8C9
S315080010DC0378472B17D143784E2B14D18378552B8D
S315080010EC11D1C378432B0ED10379432B0BD14379FA
S315080010FC2B2B08D183792B2B05D1C07901288CBFD2
S3150800110C0020012070470020704710B5044648B1EE
S3150800111C00F03BF82046FFF7DBFF18B154F8140C27
S3150800112CFFF7A2FEFFF7ACFE38B50246FFF7D0FF75
S3150800113C044640B152F8184C0025104600F025F824
S3150800114C1DB1FFF7AFFE0125F7E72046FFF79DFE19
S3150800115C0378472B17D143784E2B14D18378552B0C
S3150800116C11D1C378432B0ED10379432B0BD1437979
S3150800117C2B2B08D183792B2B05D1C07901288CBF51
S3150800118C0020012070470020704738B50446FFF749
S3150800119CF7FB056802462046A4F12001FFF7D8FFA5
S315080011AC28B90DB1FFF76CFE1160284638BD54F806
S315080011BC0C3C002BB4BFC3F10103013344F80C3CBF
S315080011CC53688D4203F1FF33536020461CBF44F825
S315080011DC105C1160656A00F097FAE6E700F008B84B
S315080011EC08B5062000F040F8012000F0E9FF0000E1
S315080011FC024B0146186800F079B800BF0C000020B5
S3150800120C014800F071B800BFC4010020014800F085
S3150800121C6CB800BFC40100201F2938B505460C461A
S3150800122C04D9162303604FF0FF3038BDC26B12B1D8
S3150800123C52F821304BB9284600F030F822460146C0
S3150800124C2846BDE8384000F017B8012B0AD0591CBF
S3150800125C03D1162303600120E7E7002142F8241086
S3150800126C204698470020E0E7024B01461868FFF72E
S3150800127CD3BF00BF0C00002038B5074D0023044629
S3150800128C084611462B6000F093FF431C02D12B68CD
S3150800129C03B1236038BD00BFC001002000F080BF39
S315080012AC70B50D4D0D4C641BA4100026A64209D131
S315080012BC0B4D0C4C00F086FF641BA4100026A642AE
S315080012CC05D170BD55F8043B98470136EEE755F83D
S315080012DC043B98470136F2E700240008002400086E
S315080012EC00240008042400087047704738B50546E2
S315080012FC002941D051F8043C0C1F002BB8BFE41848
S3150800130CFFF77EFF1D4A136833B9636014602846DD
S3150800131CBDE83840FFF77ABFA34208D920682118E0
S3150800132C8B4201BF19685B6809182160EDE71A46FC
S3150800133C5B680BB1A342FAD911685018A0420BD1BD
S3150800134C20680144501883421160E0D118685B6824
S3150800135C536008441060DAE702D90C232B60D6E7F1
S3150800136C206821188B4204BF19685B68636004BF48
S3150800137C091821605460CAE738BD00BF84000020F4
S3150800138C03685A004CBF43F0004323F0004318444B
S3150800139C704700BF2DE9F04759B301F1FF380546F0
S315080013AC164647464FF0000A0AEB070101EBD171C6
S315080013BC491005EBC1094846FFF7E2FF88454FEA95
S315080013CCC104034610D004F10800B342284407D8D8
S315080013DCFFF7D6FF0138B04208D201F1010AE3E75C
S315080013EC8A4506D04F1EDFE7B042F9D84846BDE815
S315080013FCF0874FF000094846BDE8F087012809D068
S3150800140C022805D0044B00280CBF1846002070474C
S3150800141C0248704702487047DD1A0008ED1A0008A2
S3150800142CE51A000830B5224B83B004468D1E43B32B
S3150800143C01A92846AFF30080F0B101992A46FFF7B7
S3150800144CA9FF0146C0B1FFF79BFF4B68A064012BAF
S3150800145C2BD0002B01F1040025DBFFF791FF0023AD
S3150800146C23650368E064002B12DBFFF789FF03464C
S3150800147C0020236103B030BD00230920236103B08B
S3150800148C30BD0C4B0C49C91AC91018460191D5E741
S3150800149CC3F30360FFF7B2FF031E0CBF092000203D
S315080014AC236103B030BD0123DAE700230520E0E70A
S315080014BC0000000040230008002400080368DA072F
S315080014CC10B5044606D49B0700F1500009D5FEF763
S315080014DC85FE2368590709D51A070ED5DB0613D5D9
S315080014EC10BDFEF773FE23685907F5D404F1D8002E
S315080014FCFEF77CFE23681A07F0D404F5AC70FEF7E9
S3150800150C7DFE2368DB06EBD404F5EC70BDE81040D1
S3150800151CFEF7B8BE0346006800B11844704700BF12
S3150800152C704700BF70B504460E46316C2046FFF76F
S3150800153C79FF054688B9326C6261236932462146C1
S3150800154C012098470828F0D0072806D12846316C80
S3150800155CFFF7E6FF301DFEF72DFEFFF741FE00BF35
S3150800156C2DE9F04701F1040CC768D0F81880064637
S3150800157C9146BCE80F00ADF5767D03AC0FC4BCE80C
S3150800158C0F000FC4BCE80F000FC49CE80F0002AD97
S3150800159C4FF0000E84E80F00C5F800E021E02B6C34
S315080015AC73614FF4F47229467CA800F0EBFD33699D
S315080015BC7CAA3146504698478A9BAB644946CDE986
S315080015CC00588246334601203246B847814630BB1E
S315080015DC4FF4F4727CA9284600F0D4FDBAF1080F32
S315080015EC1AD1296C3046FFF71DFF09F10909044683
S315080015FC5FFA89FA0028D2D0AB6BAB643246CDE9D8
S3150800160C005833464AF010010120B84738B920462D
S3150800161C0DF5767DBDE8F087BAF1070F05D00924DC
S3150800162C20460DF5767DBDE8F0874846296CFFF710
S3150800163C77FF03A8FEF7BEFDF0B5CB6BFBB001F147
S3150800164C040C0B640E460546BCE80F0001AC0FC42F
S3150800165CBCE80F000FC4BCE80F000FC49CE80F00D1
S3150800166C4FF0FF3784E80F00009706E02B696A46AF
S3150800167C294698470828044608D110992846FFF7A2
S3150800168CD1FE0028F2D009207BB0F0BD6846FFF7E2
S3150800169C15FF062CF7D131462846FFF743FF00BF46
S315080016ACC160D96B8261196400221946FFF758BFCD
S315080016BC70B5C66843690B64AEB903690A46044635
S315080016CC0D46014602209847072805D008280FD151
S315080016DC29462046FFF726FF3046296CFFF720FFE0
S315080016EC281DFEF767FD0122FFF73AFFFFF778FD85
S315080016FCFFF776FDC26822B1CA6B0A640022FFF7AF
S3150800170C2FBFFFF799BF00BF704700BF052915D833
S3150800171CDFE801F00A031403030501207047009A59
S3150800172C436C13600020704743B90F2A06D800EBA8
S3150800173C820200205368009A136070470220704793
S3150800174C00B585B00A46002303A900911946FFF790
S3150800175CDDFF039805B05DF804FB00BF052915D815
S3150800176CDFE801F00A031403030501207047009B08
S3150800177C1B6843640020704743B90F2A06D8009BA0
S3150800178C00EB82021B6853600020704702207047EA
S3150800179C10B584B0002303AC039200940A4619468C
S315080017ACFFF7DCFF04B010BD70B5D36BADF5107D3B
S315080017BC02F1040C136405460C46BCE80F000DF147
S315080017CC5C0EAEE80F00BCE80F00AEE80F00BCE8F4
S315080017DC0F00AEE80F009CE80F004FF0FF368EE8BE
S315080017EC0F00169610E0FFF7D3FF214616A8A84758
S315080017FC034616AA0820694683B9049B9847052808
S3150800180C06460CD0092809D026996846FFF70AFE21
S3150800181C03460C216A4616A8002BE4D0092616A8FE
S3150800182CFFF74CFE30460DF5107D70BD2DE9F04FD7
S3150800183C1646CA6C89B00D4652F8041B069200F07F
S3150800184C030C002B79D00C0C8DF81D400904E4B25E
S3150800185C059102EB840202218DF81C10296DBCF14E
S3150800186C020F08BFAA6B11F0010809D005A930466A
S3150800187C00F0DEFA002856D1082009B0BDE8F08F32
S3150800188C1768002FF2D000F00801CDE90118E346DD
S3150800189C9A46BAF1020F4CD01788548802F10409FB
S315080018ACAA6C24F001030F21304603EB0208FFF75C
S315080018BC47FF80453BD827F0010202EB0803834219
S315080018CC94BF00230123640004F0020407F0010707
S315080018DC2743012F4ED0022F35D027BBBBF1000F63
S315080018EC02D0002B40F0D38009F104021768002FB0
S315080018FCCFD105A93046DDF8088000F099FA90B9E1
S3150800190CB8F1000FB8D00F213046FFF719FF0E219A
S3150800191C02463046FFF73CFF6C4A0F213046FFF76C
S3150800192C37FF072000E0092009B0BDE8F08F002337
S3150800193CC9E7546802F10809B2E7090205918DF85E
S3150800194C1D30032188E7D9F8004024F00048BBF184
S3150800195C000F47D12BB1019B002B5CD0B8F1000FBF
S3150800196C59D0002C01DA09F1040908F1010209EB36
S3150800197C8202BBE7BBF1000F1CD1C3B1D9F8043006
S3150800198CD9F80020991C4FEAD272CCD005F158042C
S3150800199C0133049400F08E8009F10400FFF7BAFDB8
S315080019AC04AB01462846FEF757FF002859D109F122
S315080019BC08029BE70D213046FFF7C2FE2C6A8442CB
S315080019CCF5D1AB6A9945F2D14846FFF7D9FC0F21F8
S315080019DC02463046FFF7DCFE2A4600213046FFF762
S315080019ECD7FE9EE70D213046FFF7AAFE2F6A8742DF
S315080019FCB7D1AB6A9945B4D100240423C5E90B4386
S31508001A0C4B44C5F828806B63D9F80030A34258DBE1
S31508001A1C01230293A9E705F15803CDF80CB009F197
S31508001A2C0407B34600241E460BE038460496FFF717
S31508001A3C71FD0022014604AB2846FEF70DFF04375C
S31508001A4CF8B9444504F10104EFD10D215846FFF7C6
S31508001A5C77FE049BC5F828900246C5E9082306209C
S31508001A6C62E704460D213046FFF76AFE049E28629B
S31508001A7C022C04BFEE6205F12C06C5E9096906209D
S31508001A8C52E75E46D9F80040DDF80CB069E74846DF
S31508001A9CFFF776FC09F104030446AB632846FEF708
S31508001AAC39FF00283FF43FAF22460F213046FFF797
S31508001ABC6FFE36E730460D21FFF742FE26462862B2
S31508001ACCDBE708F1010209EB82007EE73511000815
S31508001ADC0023FFF7ABBE00BF0123FFF7A7BE00BF6D
S31508001AEC0223FFF7A3BE00BF2DE9F0410646C4B09A
S31508001AFC1446052900F2D880DFE811F012002D00F3
S31508001B0CD6006C0091000600836B002C40F0CC804C
S31508001B1C53F8042B42648363002044B0BDE8F0817B
S31508001B2C002B40F0C180856B1FFA84FC012006F15E
S31508001B3C040E00FA03F111EA0C0F2A4604D052F8E7
S31508001B4C041B4EF8231015460133102BF1D1A704AC
S31508001B5CE2D4B563E0E7012B4FEA1447A4B200F0D0
S31508001B6C8380052B40F0A08007EB0408B8F1200F02
S31508001B7C00F29A800F2F40F29980002CCCD0026884
S31508001B8C500700F11881019302AD2846FEF732FB87
S31508001B9C4FEA440CA7F11000B16B019B0CF1FF3C0A
S31508001BAC05EBC0000CF1010C043801EB8C0251F862
S31508001BBC044B40F8044F9142F9D1012B00F0DE801A
S31508001BCC0F2FB16302D822A8FEF708FB2846FEF7AA
S31508001BDC0DFBA1E7032B67D1A7B207EB1443102B18
S31508001BEC4FEA144460D80368190700F1BF8022AD88
S31508001BFC2846FEF725FB7A00B06B05EBC404531E8A
S31508001C0C42B1011B625844F8042B013B5A1CF9D10A
S31508001C1C00EBC700B0632846FEF7F0FA7CE7002B0A
S31508001C2C42D1102C40D80368DD0600F1978022AD0E
S31508001C3C2846FEF731FBB76B294600234FF0010CFB
S31508001C4C0CFA03F22242384603F1010303D050F88A
S31508001C5C042B0A600746042B01F10401F0D1B76383
S31508001C6C2846FEF70FFB57E73A19102A1CD8102FEF
S31508001C7C1AD00268D00708D5304622F0030240F87D
S31508001C8C502B0193FEF7A6FA019B019322AD284629
S31508001C9CFEF7A0FAB26B019B002C58D10432B26342
S31508001CAC2846FEF793FA37E7022036E7B8F1100F05
S31508001CBC026865D9D40772D522F0010242F00202F5
S31508001CCC40F8502B0193FEF78DFA3268019B12F0FF
S31508001CDC040F66D122AD28460193FEF783FA02A8B3
S31508001CECFEF788FAC7F110014900B26B019BA8F1FF
S31508001CFC100C4C1E05EBC7000134043802EB8401AA
S31508001D0C52F8044B40F8044F8A42F9D1BCF1000F43
S31508001D1C5AD0102F384638BF10204FEA4C0C1038C2
S31508001D2C02AD0CF1FF3C05EBC0003BE7304622F058
S31508001D3C010242F0020240F8502B22AD0193FEF745
S31508001D4C51FA2846FEF74EFAB26B24B3019B64008F
S31508001D5C013C05EBC7004FF0000CCDE723F0100350
S31508001D6C036000F5EC70FEF797FA60E723F00803BA
S31508001D7C036000F5AC70FEF763FA38E722AD8DE721
S31508001D8CD107D3D422AD28460193FEF72BFAB26BB2
S31508001D9C019B002CDBD12846FEF720FABCE654073B
S31508001DAC98D5304622F0040240F8D82B0193FEF75A
S31508001DBC21FA019B8EE7304622F0040240F8D82B14
S31508001DCC0193FEF717FADFE6012B3FF467AF0F2FE7
S31508001DDCB2633FF6A1AEDEE7027A03467AB9427AD7
S31508001DECA2B14168013A10B44272086803220C1D6C
S31508001DFC1A7202025C60000E10BC1A60704700680A
S31508001E0C013A1A7202021A60000E7047B020704727
S31508001E1C00B585B003AA0023009219460C22FFF7D9
S31508001E2C75FC039805B05DF804FB00BFFFF7F0BF1F
S31508001E3C2DE9F043064685B00D464FF000082846B6
S31508001E4CFFF7CAFFB028044600F01C8107065BD5CD
S31508001E5C00F0F003A02B1AD030D8802B00F082802B
S31508001E6C902B27D100F00D030D2B23D002AF0023A6
S31508001E7C00F00F02194600973046FFF747FC00237F
S31508001E8C00970D2219463046FFF768FCD7E7C3437F
S31508001E9C03F007034FF47F621A41010702F47F62CD
S31508001EAC01D542F48042002319463046FFF71CFE42
S31508001EBC0028C4D0092005B0BDE8F083B02B68D043
S31508001ECCC02B3DD1C62800F0CA80C72800F0DF8099
S31508001EDC00F0F803C02B00F0EC80C82800F0F7805F
S31508001EECC928E7D12846FFF777FF020300F00F0051
S31508001EFC02F4702201300243012105233046FFF714
S31508001F0CF3FD00289BD0D5E78300DBB21F1D0DF12E
S31508001F1C080900231946CDF800900D223046FFF724
S31508001F2CF5FB029BCDF8009060064CBFDF1BFF1833
S31508001F3C00230D22194630460297FFF70FFC7EE761
S31508001F4C00F0F803D02BB5D100F0070201320523B7
S31508001F5C42F4002201213046FFF7C6FD00283FF463
S31508001F6C6EAFA7E72846FFF737FF24022043B0F5E4
S31508001F7C004F9FD004010023A2B219463046FFF742
S31508001F8CB3FD002896D114F4004F18BF4FF0010882
S31508001F9C55E7A0F1B103042B00F2B580DFE803F096
S31508001FAC5529160C030003AA0023009219460D2284
S31508001FBC3046FFF7ABFB42E700231A4605213046AD
S31508001FCCFFF792FD00283FF43AAF73E72846FFF770
S31508001FDC03FF020300F00F00013002F47022012304
S31508001FEC024319463046FFF77FFD00283FF427AF1A
S31508001FFC60E700230DF108090D221946CDF800906B
S3150800200C3046FFF783FB2846FFF7E6FE0206029CDE
S3150800201C4FF002070BD500F07F00B8400444284661
S3150800202C0294FFF7D9FE030607F10707F3D4B84065
S3150800203C002304F501740444CDF800900D221946CA
S3150800204C30460294FFF78AFBF9E62846FFF7C4FEEA
S3150800205C431EDBB20E2B02467FF625AF2AE728462F
S3150800206CFFF7BAFE020300F00F00013002F47022EB
S3150800207C0323024319463046FFF736FD00283FF482
S3150800208CDEAE17E7B8F1000F2DD0002013E728466F
S3150800209CFFF7A2FE431EDBB20E2B02463FF60AAF33
S315080020AC002304213046FFF71FFD00283FF4C7AE76
S315080020BC00E700F00F020132032342F420221946EE
S315080020CC3046FFF711FD00283FF4B9AEF2E6284674
S315080020DCFFF782FE00F0F00200F00F031032013316
S315080020EC43EA023208E702AC4346414600940E2204
S315080020FC3046FFF70BFB0F22009443464146304609
S3150800210CFFF72CFBC1E700F0FC03B42B3FF4D2AE6F
S3150800211C00F007020132012342F400221946304628
S3150800212CFFF7E2FC00283FF48AAEC3E610B5C26C92
S3150800213C536884B04FF0030C08321C0208461B0E79
S3150800214C01A9019402928DF80CC08DF80D30FFF799
S3150800215C6FFE04B010BD00BF08B5FFF767FE806CB4
S3150800216C08BD00BF08B5FFF761FEC06CC37900EB6C
S3150800217C8300083008BD00BF08B5FFF731F808B56D
S3150800218CFFF7FAFF0A44914200F1FF3300D170477A
S3150800219C10B511F8014B03F8014F9142F9D110BD56
S315080021AC024B58221A604FF0FF307047C0010020CE
S315080021BC024B58221A604FF0FF307047C0010020BE
S315080021CCFEE700BFF8B500BFF8BC08BC9E467047D2
S311080021DCF8B500BFF8BC08BC9E4670476A
S315080021E84E31305F5F637878616269763131355F81
S315080021F85F666F726365645F756E77696E644500BE
S31508002208EC220008E82100084E31305F5F637878D1
S31508002218616269763131395F5F666F726569676EC3
S315080022285F657863657074696F6E4500EC2200080F
S31508002238102200084E31305F5F63787861626976EC
S315080022483132305F5F73695F636C6173735F74798A
S3150800225870655F696E666F450000000078220008A1
S315080022683C220008D8220008000000006422000862
S31508002278BD0E0008D10E0008C10F0008C10F0008DE
S31508002288AF100008F10F0008950F0008210F000885
S31508002298E50E0008537439747970655F696E666F60
S315080022A800000000EC2200089C2200084E31305F2E
S315080022B85F637878616269763131375F5F636C612D
S315080022C873735F747970655F696E666F45000000A1
S315080022D878220008B4220008AC2200080000000092
S315080022E8D82200083110000845100008C10F000858
S315080022F8C10F0008AF100008F10F00089710000872
S30D08002308591000082310000813
S3150800231039E8FF7F00840400FFFF010C0E0400006B
S315080023201A0A2C003204000008B10181B0B00084FA
S315080023300000000008B10181B0B000840000000070
S315080023406CDEFF7F01000000A0E4FF7FC4FFFF7F73
S31508002350CEE4FF7F01000000D8F0FF7FB0A902801D
S3150800236068F1FF7FB0B0A880B8F1FF7F01000000D8
S31508002370C0F1FF7FB0B0AA80F4F1FF7FAE75B280DE
S31508002380C4F2FF7FAB3F3A8024F3FF7F01000000D1
S315080023902CF3FF7FB0B0AA8068F3FF7F010000002E
S315080023A014F4FF7FAA0FB28090F4FF7FB0AF0880C5
S315080023B02CF7FF7F010000003CF7FF7FAC3F03804E
S315080023C024FAFF7F0100000054FAFF7F008404808E
S315080023D068FAFF7F0100000064FAFF7FB0AD048051
S315080023E058FDFF7FB0A803807CFDFF7F3CFFFF7F81
S315080023F080FDFF7F40FFFF7F8CFDFF7F010000000F
S30908002400D5030008EA
S30908002404AD0300080E
S315080024080024F4008D0E0008ED11000810000020C5
S315080024180000000088000020F00000205801002075
S315080024280000000000000000000000000000000096
S315080024380000000000000000000000000000000086
S315080024480000000000000000000000000000000076
S311080024580000000000000000000000006A
S70508000645A7
