S014000050524F4A4543545F563030312E73726563B3
S315080000000000032045060008970600089906000820
S315080000109B0600089D0600089F06000800000000D1
S31508000020000000000000000000000000A106000813
S31508000030A306000800000000A5060008A706000899
S315080000409506000895060008950600089506000816
S315080000509506000895060008950600089506000806
S3150800006095060008950600089506000895060008F6
S3150800007095060008950600089506000895060008E6
S3150800008095060008950600089506000895060008D6
S3150800009095060008950600089506000895060008C6
S315080000A095060008950600089506000895060008B6
S315080000B095060008950600089506000895060008A6
S315080000C09506000895060008950600089506000896
S315080000D09506000895060008950600089506000886
S315080000E09506000895060008950600089506000876
S315080000F09506000895060008950600089506000866
S315080001009506000895060008950600089506000855
S315080001109506000895060008950600089506000845
S315080001209506000895060008950600089506000835
S315080001309506000895060008950600089506000825
S315080001409506000895060008950600089506000815
S315080001509506000895060008950600089506000805
S3150800016095060008950600089506000895060008F5
S315080001709506000895060008950600080000000088
S3150800018095060008950600089506000895060008D5
S3150800019095060008950600089506000895060008C5
S311080001A09506000895060008950600085C
S315080001AC10F8012B11F8013B012A28BF9A42F7D007
S315080001BCD01A704700F1340191E838009C46A646DF
S315080001CC4CF8045D90E8FF0FE54600BD90EC210B5A
S315080001DC704700BF80EC210B704700BF90EC200BDA
S315080001EC704700BF80EC200B704700BFD0EC200B8B
S315080001FC704700BFC0EC200B704700BFF0EC020143
S3150800020CF0EC0211F0EC0221F0EC0231F0EC0241B8
S3150800021CF0EC0251F0EC0261F0EC0271F0EC0281A8
S3150800022CF0EC0291F0EC02A1F0EC02B1F0EC02C198
S3150800023CF0EC02D1F0EC02E1F0EC02F1704700BFF1
S3150800024CE0EC0201E0EC0211E0EC0221E0EC0231F8
S3150800025CE0EC0241E0EC0251E0EC0261E0EC0271E8
S3150800026CE0EC0281E0EC0291E0EC02A1E0EC02B1D8
S3150800027CE0EC02C1E0EC02D1E0EC02E1E0EC02F1C8
S3150800028C704700BFB0FC0181B0FC0191B0FC01A124
S3150800029CB0FC01B1704700BFA0FC0181A0FC019124
S315080002ACA0FC01A1A0FC01B1704700BFEC4600B54B
S315080002BC2DE900502DE9FF1F4FF000032DE90C0026
S315080002CC01A901F0BDF9DDF840E012B0704700BF96
S315080002DCEC4600B52DE900502DE9FF1F4FF0000341
S315080002EC2DE90C0001A901F0E9F9DDF840E012B09E
S315080002FC704700BFEC4600B52DE900502DE9FF1FED
S3150800030C4FF000032DE90C0001A901F0F9F9DDF80D
S3150800031C40E012B0704700BFEC4600B52DE900501E
S3150800032C2DE9FF1F4FF000032DE90C0001AB01F07E
S3150800033CBDF9DDF840E012B0704700BFEC4600B5D9
S3150800034C2DE900502DE9FF1F4FF000032DE90C0095
S3150800035C01AA01F033FADDF840E012B0704700BF8D
S3150800036C0348044B834202D0034B03B1184770472A
S3150800037C5C0000205C000020000000000548064BCD
S3150800038C1B1AD90F01EBA301491002D0034B03B179
S3150800039C184770475C0000205C0000200000000035
S315080003AC10B5064C237843B9FFF7DAFF044B13B1A3
S315080003BC0448AFF300800123237010BD5C000020B5
S315080003CC00000000F421000808B5054B1BB10549CF
S315080003DC0548AFF30080BDE80840FFF7CFBF00BF64
S315080003EC0000000060000020F421000841390729AC
S315080003FC3DD8DFE801F0040B121920272E351D4ACB
S3150800040C1D48136B43F0010313637047194A1B48C5
S3150800041C136B43F0020313637047164A1848136BA1
S3150800042C43F0040313637047124A1648136B43F0E0
S3150800043C0803136370470F4A1348136B43F01003F2
S3150800044C136370470B4A1148136B43F0200313636D
S3150800045C7047084A0E48136B43F040031363704702
S3150800046C044A0C48136B43F040031363704700208F
S3150800047C704700BF003802400000024000040240EA
S3150800048C00080240000C0240001002400014024012
S3150800049C00180240001C024070B50C460480114638
S315080004AC827005461E46FFF7A1FF610089B24B1CF8
S315080004BC9BB2012EA860E980AB801BD0022E0ED011
S315080004CC5EB9C468012202FA01F124EA0101C1608D
S315080004DCC1689A4021EA0202C260284670BDC46807
S315080004EC012202FA01F124EA0101C160C1689A40AD
S315080004FC0A43F1E7C26806FA01F11143C160C26802
S3150800050C9E4022EA0602E7E7012970B5846810D0F6
S3150800051C022928D0D1B105880121A94052BB6268AD
S3150800052C22EA01026260032B36D8DFE803F027368D
S3150800053C43508588266801FA05F535432560C68833
S3150800054C2568B14025EA01012160E4E7868825681B
S3150800055C012101FA06F625EA0605C68825602568EE
S3150800056CB1402943F0E785882668012101FA05F58B
S3150800057C3543F2E7626811436160D4E78188A26863
S3150800058C012303FA01F122EA0102A260C188A268DA
S3150800059C8B4022EA0303A36070BD8188A2680123FD
S315080005AC03FA01F122EA0102C188A260A2688B4013
S315080005BC1343F0E78388A168012202FA03F30B437D
S315080005CCA360C188A3688A4023EA0203E3E782880A
S315080005DCA168012303FA02F20A43E5E783681A695C
S315080005EC0388012098401040D840003818BF0120D5
S315080005FC7047826800889169012383400B43936195
S3150800060C704710B5816802888C69103201239340B3
S3150800061C23438B6110BD08B50146FFF7DFFF20B1F8
S3150800062CBDE808400846FFF7ECBFBDE80840084699
S3150800063CFFF7DFBF70470000DFF834D0002103E076
S3150800064C0C4B5B58435004310B480C4B42189A42DE
S3150800065CF6D30B4A02E0002342F8043B094B9A42B4
S3150800066CF9D300F01BF800F01DFE00F0B7F8704740
S3150800067C0000032040240008000000205C00002035
S3150800068C5C000020C8010020FEE77047FEE7FEE785
S3150800069CFEE7FEE770477047704770470F49D1F879
S315080006AC883043F47003C1F888300D4B1A68002063
S315080006BC42F001021A6098601A6822F0847222F4D9
S315080006CC80321A60074A5A601A6822F480221A6025
S315080006DCD8604FF000638B60704700BF00ED00E0F8
S315080006EC0038024010300024334B1A6842F480322A
S315080006FC82B01A601A689203FCD530490A6822F04F
S3150800070C0F0242F005020A601A6C42F080521A6413
S3150800071C1B6C03F080530193019B294B1A6842F416
S3150800072C80321A605A68D003FCD51A6842F4003233
S3150800073C1A60234A53689903FCD51F4B21495A68FA
S3150800074C1140214A0A435A605A6822F440325A60C8
S3150800075C1A6842F080721A601A689201FCD59A6877
S3150800076C22F0F0029A609A6822F0030242F0020222
S3150800077C9A60114B9A6802F00C02082AFAD19A6808
S3150800078C22F4E05242F4A0529A609A6822F460422B
S3150800079C42F400429A604FF0E0230C4A5A610C4A24
S315080007ACF02182F8231000229A6107221A61094B5C
S315080007BC094A1A6002B0704700380240003C0240F1
S315080007CC007000400080BFFF085A40001FBF02009F
S315080007DC00ED00E0000000200095BA0A1FB50023C2
S315080007EC4222072101A8FFF757FE00231A4619468D
S315080007FC01A8FFF789FE01A8FFF70DFFFFF774FFA5
S3150800080CFEE701A8FFF716FF00F000F81EB400F08B
S3150800081C90F81EBCFFF75CFD0378472B17D143787D
S3150800082C4E2B14D18378552B11D1C378432B0ED16B
S3150800083C0379432B0BD143792B2B08D183792B2B9B
S3150800084C05D1C07901288CBF0020012070470020F3
S3150800085C704700002DE9F3411F460378C479472BEE
S3150800086C02460D4612D143784E2B0FD18378552B61
S3150800087C0CD1C378432B09D10379462B06D143797E
S3150800088C4F2B03D18379522B00D1F4B11046FFF7C5
S3150800089CC3FF00230193D8B9154C236820469B68DF
S315080008AC984700B3019B1B68019302262B6801AA83
S315080008BCD3F81080214601232846C047A8B1019BCE
S315080008CC3B60304602B0BDE8F0810194094CE4E780
S315080008DC52F8201C012C1ABF0C4602F1580151F88B
S315080008EC784C0191D9E70126E0E70646E9E700BF0F
S315080008FC582200082C22000810B5044600F032F8DD
S3150800090C02462046A4F12001FFF786FF60B154F891
S3150800091C043C0133012B44F8043C03D1936844F896
S3150800092C083C9160012010BD9368002BF9D000F0AB
S3150800093CA9FA10B500F016F8826801460AB900F053
S3150800094CA1FA02F120042046FFF766FF40B1D369ED
S3150800095C013BD36113B9906988609361204610BD39
S3150800096C8860FBE7004870477800002030B5002304
S3150800097C1A4610F8015B05F07F04944023432C06B5
S3150800098C02F10702F5D40B6030BD30B500231A46C8
S3150800099C10F8014B04F07F0595402B43250602F110
S315080009AC0702F5D41F2A06D8640642BF4FF0FF3457
S315080009BC04FA02F213430B6030BD50282DE9F341BB
S315080009CC0646884615461F4608D1D01C20F003005B
S315080009DC50F8044B3C6002B0BDE8F08100F00F0300
S315080009EC0C2B2ED8DFE803F025071D25292D2D2DD8
S315080009FC2D182125290001A92846FFF7B7FF019CC8
S31508000A0C002CE7D006F07003102B08BFA846444408
S31508000A1C330648BF2468DDE701A92846FFF7B5FF6A
S31508000A2CEDE7284630F8024BEAE7284630F9024B40
S31508000A3CE6E7284650F8044BE2E7284650F8084BF8
S31508000A4CDEE700F0CFFB08B50346FF2B08460DD0B2
S31508000A5C03F07003302B0FD004D8202B08D005D9FF
S31508000A6C00F0C0FB402B0BD0502BF9D1002008BD51
S31508000A7CBDE8084001F095BBBDE8084001F08EBB07
S31508000A8CBDE8084001F07ABB70B50C460146204615
S31508000A9C15461E46FFF7D7FF334601462A4620461B
S31508000AACBDE87040FFF789BF73B50C461546064678
S31508000ABC08B101F063FB2246286012F8011BFF29D6
S31508000ACC1CD02B1D3046FFF7DFFF0246104610F8E8
S31508000ADC013BFF2B14D010232B7501A9FFF746FFFA
S31508000AEC019B0344EB6010F8013B6B7501A9FFF7FA
S31508000AFC3DFF019B03442B6102B070BD6860E5E7BE
S31508000B0C2B750023EEE71FB503AB009300230A46AB
S31508000B1C194600F005FE039805B05DF804FB0000C5
S31508000B2C2DE9F04F00F0030395B04FF00009012BA7
S31508000B3C0C461546CDF8249011D0022B04D0002B68
S31508000B4C74D110F0080673D02946204601F000FB34
S31508000B5C18B1092015B0BDE8F08F0820FAE710F097
S31508000B6C08065AD002231E430EAF002300970C2208
S31508000B7C194628460E9400F0FBFD062E5AD1D4F8D9
S31508000B8C3080B8F1000F00F06381D4E90A7A4FF08F
S31508000B9C030B002F1ADA0EAA514628468DF84C90EC
S31508000BACFFF782FF119E9DF84C002946FFF74BFF75
S31508000BBCFB4306EB8303002253F82210002940F06E
S31508000BCC4A81C4E90A200422C4E90C2300230DAE89
S31508000BDC1A461946009628460D9400F0C9FD0023BE
S31508000BEC19460122009628460D9700F0C1FD0F21E3
S31508000BFC2846FFF788FF00F0010040EA08000023AA
S31508000C0C0D9000960F221946284600F0B1FDBBF14F
S31508000C1C020F00F0228107209CE70F6A10460D216F
S31508000C2CFFF771FF87429DD106239CE700F0DAFA9D
S31508000C3C012398E7284601F0A7FA8246002883D0B4
S31508000C4C3A46014628468DF84C90FFF72DFF9DF83D
S31508000C5C4C90119B0393294683464846FFF7F3FEAF
S31508000C6C0F21049010902846FFF74DFF20F001083D
S31508000C7C08F1FF330593129F5F4517D80027B8462E
S31508000C8C4FF0010BF20740F1D380BBF1020F3FF492
S31508000C9C5BAF0D212846099EFFF735FFC4E90A7A92
S31508000CACC4E90806C4F83080062053E79DF84D8041
S31508000CBC5A460AAB41460020FFF7E6FE0BAB024646
S31508000CCC41460020FFF7E0FE0CAB024641460020E9
S31508000CDCFFF7DAFE0DA9FFF749FE0A9A0E9B134495
S31508000CEC059A9342834655D80B9A1344059A934210
S31508000CFCC1D9DDF83080B8F1000F01D00F9B9844AC
S31508000D0C0D9800283ED001383844B8F1000F3FF44E
S31508000D1C1BAF16F0080306933ED0472323704E23C9
S31508000D2C63705523A3704323E370462323714F2323
S31508000D3C63715223A3710023E371002305930BA956
S31508000D4CFFF723FE0CA90790FFF71FFE0B9F002F3A
S31508000D5C6BD0022E5DD0002F42DDB9F1FF0F3BD0D0
S31508000D6C09F00703042B3FF661AF01A252F823F0F2
S31508000D7CB70D0008390C0008E90D0008B70D000876
S31508000D8CE10D0008B8F1000F3FF4DEAE00274FF076
S31508000D9C020B77E7BB466EE7E379012B0CBF54F8D9
S31508000DAC203C04F158030993C7E7042203990DABB9
S31508000DBC02FB171248460499FFF7FFFD0D9931B14E
S31508000DCC3CB309AB00222046FFF744FD08B34FF0AD
S31508000DDC030B57E70822E9E70022E7E70222E5E7D3
S31508000DEC039A6FF04043DB1B02EB830BBCB1069AEC
S31508000DFCAAB9099B0D93ABF1040B5BF8041F0029E8
S31508000E0CE5D00DAB002259442046FFF723FD0028F8
S31508000E1CF3D00C9828B3079B034418468FE7039A1C
S31508000E2C52F82330002BF4D1D1E701230593F0E7D0
S31508000E3C330709D5BBF1010F01D100F023F8002FB8
S31508000E4CBFF6C4AE00F030F8BBF1010F7FF4A1AECB
S31508000E5C204600F05CF90132AEE62046FFF74CFD61
S31508000E6CD9E6059B002B91D16EE600BF08B58047E5
S31508000E7C00F0B8F9024B1868BFF35B8F704700BFD8
S31508000E8C0800002008B5FFF7F5FFFFF7EFFF08B5D8
S31508000E9C8047FFF7F7FF0000024B1868BFF35B8F1C
S31508000EAC704700BF0400002008B5FFF7F5FFFFF7F1
S31508000EBCEEFF000010B5034B0360044600F0B4F8CF
S31508000ECC204610BD9C22000810B50446FFF7F2FF19
S31508000EDC20460C2100F0FCF8204610BD2DE9F04107
S31508000EECDDF81880904506460F4615461C460BD06D
S31508000EFCB0680368CDF818801E6A2A462346394618
S31508000F0CB446BDE8F0416047194600F057F800288A
S31508000F1CEED00620BDE8F0812DE9F14F0D461946B5
S31508000F2CDDE90A4BDDE90CA681461746984600F022
S31508000F3C45F890B1002D3460377109DB2C44A24575
S31508000F4C14BF01240624B471002001B0BDE8F08F4B
S31508000F5C0235F9D10123B371F6E7544506D1594642
S31508000F6C484600F02BF808B17771EDE7D9F8080078
S31508000F7C0368CDE90CA6CDE90A4BDC693A4643462B
S31508000F8C2946A44601B0BDE8F04F60472DE9F0416B
S31508000F9C07460C4615461E4600F079F848B9B86857
S31508000FAC03689F692A4633462146BC46BDE8F0418C
S31508000FBC6047BDE8F081704700207047814208B54C
S31508000FCC0ED0406803782A2B0CD049680B782A2B4C
S31508000FDC08BF0131FFF7E4F8B0FA80F0400908BD04
S31508000FEC0120FCE70020FAE77FB500241023CDE9A1
S31508000FFC0234036815469E6912686B46CDE90044AF
S3150800100CB0479DF8043003F00603062B03BF009B7C
S3150800101C2B600120204604B070BD009890420CBF8E
S3150800102C062001207047000010B5034B03600446E8
S3150800103CFFF7C1FF204610BD1023000810B5044663
S3150800104CFFF7F2FF2046082100F042F8204610BDB3
S3150800105C2DE9F0411F46DDE90834DDF8188098457E
S3150800106C0646154607D10799FFF7A8FF18B165710B
S3150800107C0020BDE8F08139463046FFF79FFF00286F
S3150800108CF6D00123C4F800802571A371F0E738B5B2
S3150800109C15461C46FFF792FF20B10823E36006238A
S315080010AC2560237138BD2DE9F04105460C461646D8
S315080010BC1F46FFF783FF48B9032F07D82368324624
S315080010CC294620465B69BDE8F0411847BDE8F08122
S315080010DC00F086B80378472B17D143784E2B14D1DA
S315080010EC8378552B11D1C378432B0ED10379432B17
S315080010FC0BD143792B2B08D183792B2B05D1C079AE
S3150800110C01288CBF0020012070470020704710B5BD
S3150800111C044648B100F03BF82046FFF7DBFF18B150
S3150800112C54F8140CFFF7A2FEFFF7ACFE38B50246CE
S3150800113CFFF7D0FF044640B152F8184C002510466C
S3150800114C00F025F81DB1FFF7AFFE0125F7E720469D
S3150800115CFFF79DFE0378472B17D143784E2B14D1F6
S3150800116C8378552B11D1C378432B0ED10379432B96
S3150800117C0BD143792B2B08D183792B2B05D1C0792D
S3150800118C01288CBF0020012070470020704738B515
S3150800119C0446FFF7E7FB056802462046A4F1200142
S315080011ACFFF7D8FF28B90DB1FFF76CFE116028467A
S315080011BC38BD54F80C3C002BB4BFC3F10103013302
S315080011CC44F80C3C53688D4203F1FF3353602046B8
S315080011DC1CBF44F8105C1160656A00F09FFAE6E7DC
S315080011EC00F008B808B5062000F040F8012000F019
S315080011FCF9FF0000024B0146186800F079B800BFE9
S3150800120C0C000020014800F071B800BFC401002092
S3150800121C014800F06CB800BFC40100201F2938B57E
S3150800122C05460C4604D9162303604FF0FF3038BD2B
S3150800123CC26B12B152F821304BB9284600F030F87F
S3150800124C224601462846BDE8384000F017B8012B5F
S3150800125C0AD0591C03D1162303600120E7E70021A5
S3150800126C42F82410204698470020E0E7024B014636
S3150800127C1868FFF7D3BF00BF0C00002038B5074D20
S3150800128C00230446084611462B6000F0A3FF431CB6
S3150800129C02D12B6803B1236038BD00BFC001002002
S315080012AC00F090BF70B50D4B0D4D5B1B9C100026C6
S315080012BCA64209D100F098FF0A4D0B4B5B1B9C10FC
S315080012CC0026A64205D170BD55F8043B9847013651
S315080012DCEEE755F8043B98470136F2E73824000840
S315080012EC38240008382400083C2400087047704746
S315080012FC38B50546002941D051F8043C0C1F002B83
S3150800130CB8BFE418FFF77EFF1D4A136833B963604C
S3150800131C14602846BDE83840FFF77ABFA34208D9BF
S3150800132C206821188B4201BF19685B68091821606F
S3150800133CEDE71A465B680BB1A342FAD91168501847
S3150800134CA0420BD120680144501883421160E0D1A9
S3150800135C18685B68536008441060DAE702D90C23F6
S3150800136C2B60D6E7206821188B4204BF19685B6886
S3150800137C636004BF091821605460CAE738BD00BF12
S3150800138C8400002003685A004CBF43F0004323F046
S3150800139C00431844704700BF2DE9F04759B301F1D3
S315080013ACFF380546164647464FF0000A0AEB070172
S315080013BC01EBD171491005EBC1094846FFF7E2FF6D
S315080013CC88454FEAC104034610D004F10800B3421D
S315080013DC284407D8FFF7D6FF0138B04208D201F1E6
S315080013EC010AE3E78A4506D04F1EDFE7B042F9D873
S315080013FC4846BDE8F0874FF000094846BDE8F08737
S3150800140C012806D0022802D028B904487047044897
S3150800141C7047044870470020704700BF011B00083E
S3150800142C111B0008091B000830B5224B83B0044673
S3150800143C8D1E43B301A92846AFF30080F0B101997C
S3150800144C2A46FFF7A9FF0146C0B1FFF79BFF4B6879
S3150800145CA064012B2BD0002B01F1040025DBFFF730
S3150800146C91FF002323650368E064002B12DBFFF76A
S3150800147C89FF03460020236103B030BD00230920F1
S3150800148C236103B030BD0C4B0C49C91AC910184658
S3150800149C0191D5E7C3F30360FFF7B2FF031E0CBF38
S315080014AC09200020236103B030BD0123DAE70023AD
S315080014BC0520E0E700000000702300083824000827
S315080014CC0368DA0710B5044606D49B0700F15000EA
S315080014DC09D5FEF783FE2368590709D51A070ED5D1
S315080014ECDB0613D510BDFEF771FE23685907F5D434
S315080014FC04F1D800FEF77AFE23681A07F0D404F52F
S3150800150CAC70FEF77BFE2368DB06EBD404F5EC70B7
S3150800151CBDE81040FEF7B6BE0346006800B1184495
S3150800152C704700BF704700BF70B504460E46316C55
S3150800153C2046FFF779FF054688B9326C6261236944
S3150800154C32462146012098470828F0D0072806D1AC
S3150800155C2846316CFFF7E6FF301DFEF72BFEFFF72A
S3150800156C41FE00BF2DE9F04F0D1DD0F80C90D0F8B8
S3150800157C18A0074614460FCDADF5777D0DF10C0C6A
S3150800158CACE80F000FCDACE80F000FCDACE80F00A0
S3150800159C95E80F0002AE4FF0000E8CE80F000DF523
S315080015ACF878C6F800E021E0336C7B614FF4F472EE
S315080015BC3146404600F0F8FD3B69424639465846E6
S315080015CC9847D8F83830B3642146CDE9006A054601
S315080015DC3B4601203A46C847044618BB4FF4F472FA
S315080015EC4146304600F0E0FD082D19D1316C3846DD
S315080015FCFFF71AFF093405465FFA84FB0028D3D097
S3150800160CB36BB3643A46CDE9006A3B464BF010011E
S3150800161C0120C84730B928460DF5777DBDE8F08F0F
S3150800162C072D05D0092528460DF5777DBDE8F08FE1
S3150800163C2046316CFFF776FF03A8FEF7BBFD00BF0B
S3150800164CF0B5CB6BFBB001F1040C0B640F460546E9
S3150800165CBCE80F0001AC0FC4BCE80F000FC4BCE813
S3150800166C0F000FC49CE80F004FF0FF3E84E80F00F4
S3150800167C6E46CDF800E006E02B69324629469847B7
S3150800168C0828044608D1316C2846FFF7CDFE0028F9
S3150800169CF2D009207BB0F0BD3046FFF711FF062CBF
S315080016ACF7D139462846FFF73FFF00BFC160D96B13
S315080016BC8261196400221946FFF754BF70B5C668D3
S315080016CC43690B64AEB903690A4604460D460146DE
S315080016DC02209847072805D008280FD12946204606
S315080016ECFFF722FF3046296CFFF71CFF281DFEF773
S315080016FC61FD0122FFF736FFFFF774FDFFF772FD58
S3150800170CC26808B532B1CA6B0A64BDE80840002243
S3150800171CFFF728BFFFF794FF092008BD704700BFE5
S3150800172C052915D8DFE801F00A031403030501207F
S3150800173C7047009A436C13600020704743B90F2A10
S3150800174C06D800EB820200205368009A1360704793
S3150800175C0220704700B585B00A46002303A90091FC
S3150800176C1946FFF7DDFF039805B05DF804FB00BFCB
S3150800177C052915D8DFE801F00A031403030501202F
S3150800178C7047009B1B6843640020704743B90F2AB7
S3150800179C06D8009B00EB82021B685360002070473A
S315080017AC0220704710B584B0002303AC0392009452
S315080017BC0A461946FFF7DCFF04B010BD2DE9F041C7
S315080017CCD36BADF5107D02F1040C136407460E4677
S315080017DCBCE80F000DF15C0EAEE80F00BCE80F007C
S315080017ECAEE80F00BCE80F00AEE80F009CE80F004F
S315080017FC16AC4FF0FF388EE80F006D46C4F8008023
S3150800180C10E0FFF7CFFF31462046B847034622467D
S3150800181C0820294683B92B699847052880460DD098
S3150800182C092809D0216C2846FFF7FEFD03460C2132
S3150800183C2A462046002BE4D04FF009082046FFF72D
S3150800184C3FFE40460DF5107DBDE8F0812DE9F04FC1
S3150800185C1646CA6C89B00D4652F8041B069200F05F
S3150800186C030CE3B10C0C8DF81D400904E4B2059188
S3150800187C02EB840202218DF81C10296DBCF1020FB3
S3150800188C08BFAA6B11F001080FD005A9304600F065
S3150800189CDFFA002839D1082009B0BDE8F08F090213
S315080018AC05918DF81D300321E5E71768002FECD05C
S315080018BC00F008010191E346CDF808809A46BAF182
S315080018CC020F26D01788548802F10409AA6C24F052
S315080018DC01030F21304603EB0208FFF73BFF804557
S315080018EC15D827F0010202EB0803834294BF0023A4
S315080018FC0123640004F0020407F001072743012FB3
S3150800190C0BD0022F50D0002F45D00920C4E7002356
S3150800191CEFE7546802F10809D8E7BBF1000F73D159
S3150800192CCBB1D9F80430D9F80020991C4FEAD272F9
S3150800193CEBD005F158040133049400F0CC8009F17E
S3150800194C0400FFF7E9FD04AB01462846FEF782FFC3
S3150800195C002840F0978009F108021768002FAED1CD
S3150800196C05A93046DDF8088000F072FA0028CCD1BB
S3150800197CB8F1000F8FD00F213046FFF7EBFE0E2182
S3150800198C02463046FFF70EFF594A0F213046FFF73D
S3150800199C09FF072080E7BBF1000F02D0002B40F0AF
S315080019AC878009F10402D8E7D9F8004024F00048EA
S315080019BCBBF1000F0FD12BB1019B002B3CD0B8F11A
S315080019CC000F39D0002C01DA09F1040908F10102DB
S315080019DC09EB8202C1E70D213046FFF7BBFE2F6AE1
S315080019EC8742EFD1AB6A9945ECD100240423C5E9AB
S315080019FC0B434B44C5F828806B63D9F80030A342D7
S31508001A0C70DB01230293E1E70D213046FFF7A2FEB6
S31508001A1C2C6A84429FD1AB6A99459CD14846FFF7FC
S31508001A2CB1FC0F2102463046FFF7BCFE2A460021C0
S31508001A3C3046FFF7B7FEACE705F15803CDF80CB006
S31508001A4C09F10407B34600241E460BE038460496F3
S31508001A5CFFF762FD0022014604AB2846FEF7FAFEA4
S31508001A6C0437F8B9444504F10104EFD10D21584661
S31508001A7CFFF770FE049BC5F828900246C5E90823B3
S31508001A8C062009E704460D213046FFF763FE049E3F
S31508001A9C2862022C04BFEE6205F12C06C5E9096919
S31508001AAC0620F9E65E46D9F80040DDF80CB089E761
S31508001ABC4846FFF767FC09F104030446AB6328465E
S31508001ACCFEF71AFF00283FF420AF22460F213046B6
S31508001ADCFFF768FE5DE730460D21FFF73BFE26460D
S31508001AEC2862DBE708F1010209EB820097E700BFE1
S31508001AFC391100080023FFF7A9BE00BF0123FFF721
S31508001B0CA5BE00BF0223FFF7A1BE00BF2DE9F04119
S31508001B1C0646C4B01446052908D8DFE801F0163085
S31508001B2C0773980B3A19102A40F2B780022044B072
S31508001B3CBDE8F081836B002CF8D153F8042B426472
S31508001B4C8363002044B0BDE8F081002BEED1856B91
S31508001B5C1FFA84FC012006F1040E00FA03F111EABF
S31508001B6C0C0F2A4604D052F8041B4EF823101546BF
S31508001B7C0133102BF1D1A004E3D4B563E1E7012BB3
S31508001B8C4FEA1447A4B2CDD0052BCFD107EB0408E6
S31508001B9CB8F1200FCAD80F2F40F2BD80002CD0D038
S31508001BAC02685107A04600F11B81019302AC20463E
S31508001BBCFEF720FBD6F838C0019B102F4FF0FF32EA
S31508001BCC39464FF0020E38BF102118FB0E2E04EBC7
S31508001BDCC10184397246604650F8045B41F8045FCB
S31508001BEC013A551CF8D10CF1040C012B0CEB8E02A6
S31508001BFC00F0D5800F2FB26340F2FA802046FEF72C
S31508001C0CF5FA9EE7032B91D1A7B207EB1443102BD9
S31508001C1C4FEA14448AD80368190700F1A38022AD49
S31508001C2C2846FEF70DFB7A00B06B05EBC404531E71
S31508001C3C42B1011B625844F8042B013B5A1CF9D1DA
S31508001C4C00EBC700B0632846FEF7D8FA79E7002BF5
S31508001C5C7FF46CAF102C3FF669AF0368D80679D4BD
S31508001C6C22AD2846FEF718FBB76B294600234FF022
S31508001C7C010C0CFA03F22242384603F1010303D095
S31508001C8C50F8042B0A600746042B01F10401F0D125
S31508001C9CB7632846FEF7F6FA53E7102F3FF446AF1C
S31508001CAC0268D10708D5304622F0030240F8502BBB
S31508001CBC0193FEF78FFA019B019322AD2846FEF796
S31508001CCC89FAD6F838C0002C6BD0019B4FF0000867
S31508001CDC02214FF0FF3214FB012E05EBC701043924
S31508001CEC7246604650F8044B41F8044F013A541CAE
S31508001CFCF8D10CF1040C0CEB8E0CB8F1000F39D1A1
S31508001D0C012B4ED00F2FC6F838C03FF61AAF28460F
S31508001D1CFEF764FA15E70268B8F1100F02F0010134
S31508001D2C2AD851B1304622F0010242F0020240F89C
S31508001D3C502B0193FEF756FA019B019322AD2846C8
S31508001D4CFEF750FA019B002CE1D0D6F838C04FF0BC
S31508001D5C0008BDE723F01003336006F5EC70FEF7B8
S31508001D6C9BFA7DE723F00803036000F5AC70FEF7D9
S31508001D7C67FA54E702AC20E7D1B9550726D422AD49
S31508001D8C28460193FEF72EFA02A8FEF733FAA8F1B5
S31508001D9C1008D6F838C0019BC7F1100498E794468A
S31508001DAC22AD0CF10403B3632846FEF70FFAC8E616
S31508001DBC22F0010242F0020240F8502B0193FEF782
S31508001DCC11FA3268019B12F0040FD8D0304622F073
S31508001DDC040240F8D82B0193FEF70CFA019BCEE7C8
S31508001DEC22F0040240F8D82B0193FEF703FADDE63D
S31508001DFC22A8FEF7F3F901E7027A03467AB9427A82
S31508001E0CA2B14168013A10B44272086803220C1D4B
S31508001E1C1A7202025C60000E10BC1A6070470068E9
S31508001E2C013A1A7202021A60000E7047B020704707
S31508001E3C00B585B003AA0023009219460C22FFF7B9
S31508001E4C6FFC039805B05DF804FB00BFFFF7F0BF05
S31508001E5C2DE9F043064685B00D4600272846FFF7C0
S31508001E6CCBFFB028044600F0218103065ED500F0AE
S31508001E7CF003A02B1DD033D8802B00F08780902B35
S31508001E8C2AD100F00D030D2B26D00DF108080023DE
S31508001E9C00F00F021946CDF800803046FFF740FCDB
S31508001EAC0023CDF800800D2219463046FFF760FC5A
S31508001EBCD4E7C34303F007034FF47F621A410107C3
S31508001ECC02F47F6201D542F480420023194630465B
S31508001EDCFFF71CFE0028C1D0092005B0BDE8F08329
S31508001EECB02B68D0C02B3FD1C62800F0CC80C728B1
S31508001EFC00F0DF8000F0F803C02B00F0EC80C82857
S31508001F0C00F0F780C928E7D12846FFF775FF0203CA
S31508001F1C00F00F0002F47022013002430121052360
S31508001F2C3046FFF7F3FD002898D0D5E78300DBB2DF
S31508001F3C03F104080DF1080900231946CDF80090A1
S31508001F4C0D223046FFF7ECFB029ACDF8009060069E
S31508001F5C4CBFA2EB080242440023029219460D22FA
S31508001F6C3046FFF705FC79E700F0F803D02BB3D120
S31508001F7C00F007020132052342F400220121304603
S31508001F8CFFF7C4FD00283FF469AFA5E72846FFF71D
S31508001F9C33FF24022043B0F5004F9DD004010023E3
S31508001FACA2B219463046FFF7B1FD002894D1C4F306
S31508001FBCC030074352E7A0F1B103042B00F2B580F9
S31508001FCCDFE803F05729160C030003AA0023009236
S31508001FDC19460D223046FFF7A3FB3FE700231A46A6
S31508001FEC05213046FFF792FD00283FF437AF73E71B
S31508001FFC2846FFF701FF020300F00F00013002F438
S3150800200C70220123024319463046FFF77FFD00284C
S3150800201C3FF424AF60E700230DF108090D22194699
S3150800202CCDF800903046FFF77BFB2846FFF7E4FE19
S3150800203C0206029C4FF002080CD500F07F0000FA4D
S3150800204C08F0044428460294FFF7D6FE030608F166
S3150800205C0708F2D400FA08F004F5017420440023AA
S3150800206C0290CDF800900D2219463046FFF780FBFA
S3150800207CF4E62846FFF7C0FE431EDBB20E2B0246DB
S3150800208C7FF623AF28E72846FFF7B6FE020300F0D3
S3150800209C0F00013002F4702203230243194630461E
S315080020ACFFF734FD00283FF4D9AE15E76FB30020CF
S315080020BC13E72846FFF7A0FE431EDBB20E2B02469B
S315080020CC3FF60AAF002304213046FFF71FFD002810
S315080020DC3FF4C4AE00E700F00F020132032342F4CA
S315080020EC202219463046FFF711FD00283FF4B6AEFC
S315080020FCF2E62846FFF780FE00F0F00200F00F0328
S3150800210C1032013343EA023208E702AC3B46394641
S3150800211C00940E223046FFF703FB0F2200943B4631
S3150800212C39463046FFF724FBC1E700F0FC03B42B15
S3150800213C3FF4D2AE00F007020132012342F400222A
S3150800214C19463046FFF7E2FC00283FF487AEC3E693
S3150800215C10B5C26C536884B04FF0030C08321C02DD
S3150800216C08461B0E01A9019402928DF80CC08DF835
S3150800217C0D30FFF76DFE04B010BD00BF08B5FFF7B4
S3150800218C65FE806C08BD00BF08B5FFF75FFEC06C26
S3150800219CC37900EB8300083008BD00BF08B5FFF70C
S315080021AC21F808B5FFF7FAFF0A44914200F1FF330C
S315080021BC00D1704710B511F8014B03F8014F914245
S315080021CCF9D110BD024B58221A604FF0FF307047F8
S315080021DCC0010020024B58221A604FF0FF3070479E
S315080021ECC0010020FEE700BFF8B500BFF8BC08BC6C
S315080021FC9E467047F8B500BFF8BC08BC9E467047AB
S3150800220C4E31305F5F637878616269763131355F5C
S3150800221C5F666F726365645F756E77696E64450099
S3150800222C102300080C2200084E31305F5F63787863
S3150800223C616269763131395F5F666F726569676E9F
S3150800224C5F657863657074696F6E450010230008C6
S3150800225C342200084E31305F5F63787861626976A4
S3150800226C3132305F5F73695F636C6173735F747966
S3150800227C70655F696E666F45000000009C22000859
S3150800228C60220008FC2200080000000088220008D2
S3150800229CC10E0008D50E0008C50F0008C50F0008AA
S315080022ACB3100008F50F0008990F0008250F000851
S315080022BCE90E0008537439747970655F696E666F38
S315080022CC0000000010230008C02200084E31305FC1
S315080022DC5F637878616269763131375F5F636C6109
S315080022EC73735F747970655F696E666F450000007D
S315080022FC9C220008D8220008D02200080000000002
S3150800230CFC2200083510000849100008C50F000803
S3150800231CC50F0008B3100008F50F00089B1000083D
S30D0800232C5D10000827100008E7
S31508002334F9E7FF7F00840400FFFF010C0A0400008C
S31508002344160A26002C04000008B10181B0B00084E6
S315080023540000000008B10181B0B00084000000004C
S3110800236408B10181B0B000840000000040
S315080023703CDEFF7F0100000070E4FF7FB8FFFF7FAF
S3150800238098E4FF7F01000000ACF0FF7FB0A902804F
S315080023903CF1FF7FB0B0A8808CF1FF7F0100000000
S315080023A094F1FF7FB0B0AA80C8F1FF7FAF76B28004
S315080023B09CF2FF7FAB3F3A8000F3FF7F01000000ED
S315080023C008F3FF7FB0B0AA8044F3FF7F80FFFF7F4A
S315080023D058F3FF7F01000000F0F3FF7FAC0FB280D7
S315080023E078F4FF7FB0AF088018F7FF7F0100000080
S315080023F028F7FF7FAC3F03800CFAFF7F010000003F
S315080024003CFAFF7F0084048050FAFF7F0100000039
S315080024104CFAFF7FB0AD048044FDFF7FB0A803806F
S3150800242068FDFF7F34FFFF7F6CFDFF7F38FFFF7F6E
S30D0800243078FDFF7F01000000A2
S30908002438D5030008B2
S3090800243CAD030008D6
S315080024400024F400910E0008F11100081000002085
S315080024500000000088000020F0000020580100203D
S31508002460000000000000000000000000000000005E
S31508002470000000000000000000000000000000004E
S31508002480000000000000000000000000000000003E
S3110800249000000000000000000000000032
S70508000645A7
